{
  "_format": "hh-sol-artifact-1",
  "contractName": "LoanContract",
  "sourceName": "Contracts/LoanContract.sol",
  "abi": [
    {
      "inputs": [
        {
          "internalType": "address",
          "name": "_buyer",
          "type": "address"
        },
        {
          "internalType": "address",
          "name": "_seller",
          "type": "address"
        },
        {
          "internalType": "address",
          "name": "_contractOwner",
          "type": "address"
        },
        {
          "internalType": "uint256",
          "name": "_collateralAmount",
          "type": "uint256"
        },
        {
          "internalType": "uint256",
          "name": "_loanAmount",
          "type": "uint256"
        },
        {
          "internalType": "uint256",
          "name": "_loanDuration",
          "type": "uint256"
        },
        {
          "internalType": "uint256",
          "name": "_arrayIndex",
          "type": "uint256"
        },
        {
          "internalType": "address",
          "name": "_collateralCoinAddress",
          "type": "address"
        },
        {
          "internalType": "address",
          "name": "_loanCoinAddress",
          "type": "address"
        }
      ],
      "stateMutability": "nonpayable",
      "type": "constructor"
    },
    {
      "inputs": [
        {
          "internalType": "address",
          "name": "owner",
          "type": "address"
        }
      ],
      "name": "OwnableInvalidOwner",
      "type": "error"
    },
    {
      "inputs": [
        {
          "internalType": "address",
          "name": "account",
          "type": "address"
        }
      ],
      "name": "OwnableUnauthorizedAccount",
      "type": "error"
    },
    {
      "anonymous": false,
      "inputs": [
        {
          "indexed": true,
          "internalType": "address",
          "name": "previousOwner",
          "type": "address"
        },
        {
          "indexed": true,
          "internalType": "address",
          "name": "newOwner",
          "type": "address"
        }
      ],
      "name": "OwnershipTransferred",
      "type": "event"
    },
    {
      "anonymous": false,
      "inputs": [
        {
          "indexed": true,
          "internalType": "address",
          "name": "_contractAddress",
          "type": "address"
        },
        {
          "indexed": false,
          "internalType": "uint256",
          "name": "time",
          "type": "uint256"
        }
      ],
      "name": "contractDeployed",
      "type": "event"
    },
    {
      "anonymous": false,
      "inputs": [
        {
          "indexed": true,
          "internalType": "address",
          "name": "_from",
          "type": "address"
        },
        {
          "indexed": true,
          "internalType": "uint256",
          "name": "_collateralCoinAmount",
          "type": "uint256"
        },
        {
          "indexed": true,
          "internalType": "uint256",
          "name": "_loanCoinAmount",
          "type": "uint256"
        },
        {
          "indexed": false,
          "internalType": "uint256",
          "name": "_time",
          "type": "uint256"
        }
      ],
      "name": "deposit",
      "type": "event"
    },
    {
      "anonymous": false,
      "inputs": [
        {
          "indexed": true,
          "internalType": "address",
          "name": "_from",
          "type": "address"
        },
        {
          "indexed": true,
          "internalType": "uint256",
          "name": "_amount",
          "type": "uint256"
        },
        {
          "indexed": true,
          "internalType": "uint256",
          "name": "_time",
          "type": "uint256"
        }
      ],
      "name": "repayment",
      "type": "event"
    },
    {
      "anonymous": false,
      "inputs": [
        {
          "indexed": true,
          "internalType": "address",
          "name": "_to",
          "type": "address"
        },
        {
          "indexed": true,
          "internalType": "uint256",
          "name": "_collateralCoinAmount",
          "type": "uint256"
        },
        {
          "indexed": true,
          "internalType": "uint256",
          "name": "_loanCoinAmount",
          "type": "uint256"
        },
        {
          "indexed": false,
          "internalType": "uint256",
          "name": "_time",
          "type": "uint256"
        }
      ],
      "name": "withdrawal",
      "type": "event"
    },
    {
      "inputs": [],
      "name": "arrayIndex",
      "outputs": [
        {
          "internalType": "uint256",
          "name": "",
          "type": "uint256"
        }
      ],
      "stateMutability": "view",
      "type": "function"
    },
    {
      "inputs": [],
      "name": "buyerLockLoan",
      "outputs": [
        {
          "internalType": "bool",
          "name": "",
          "type": "bool"
        }
      ],
      "stateMutability": "nonpayable",
      "type": "function"
    },
    {
      "inputs": [],
      "name": "createTime",
      "outputs": [
        {
          "internalType": "uint256",
          "name": "",
          "type": "uint256"
        }
      ],
      "stateMutability": "view",
      "type": "function"
    },
    {
      "inputs": [],
      "name": "currentCollateralValue",
      "outputs": [
        {
          "internalType": "uint256",
          "name": "",
          "type": "uint256"
        }
      ],
      "stateMutability": "view",
      "type": "function"
    },
    {
      "inputs": [],
      "name": "deadline",
      "outputs": [
        {
          "internalType": "uint256",
          "name": "",
          "type": "uint256"
        }
      ],
      "stateMutability": "view",
      "type": "function"
    },
    {
      "inputs": [],
      "name": "dropExceedsMargin",
      "outputs": [
        {
          "internalType": "bool",
          "name": "",
          "type": "bool"
        }
      ],
      "stateMutability": "view",
      "type": "function"
    },
    {
      "inputs": [],
      "name": "dummyPriceAdjuster",
      "outputs": [
        {
          "internalType": "uint256",
          "name": "",
          "type": "uint256"
        }
      ],
      "stateMutability": "nonpayable",
      "type": "function"
    },
    {
      "inputs": [
        {
          "internalType": "uint256",
          "name": "",
          "type": "uint256"
        }
      ],
      "name": "dummyPriceDrops",
      "outputs": [
        {
          "internalType": "uint8",
          "name": "",
          "type": "uint8"
        }
      ],
      "stateMutability": "view",
      "type": "function"
    },
    {
      "inputs": [],
      "name": "getArrayIndex",
      "outputs": [
        {
          "internalType": "uint256",
          "name": "",
          "type": "uint256"
        }
      ],
      "stateMutability": "view",
      "type": "function"
    },
    {
      "inputs": [],
      "name": "getAvailableLoanAmount",
      "outputs": [
        {
          "internalType": "uint256",
          "name": "",
          "type": "uint256"
        }
      ],
      "stateMutability": "view",
      "type": "function"
    },
    {
      "inputs": [],
      "name": "getBuyer",
      "outputs": [
        {
          "internalType": "address",
          "name": "",
          "type": "address"
        }
      ],
      "stateMutability": "view",
      "type": "function"
    },
    {
      "inputs": [],
      "name": "getCollateralAmount",
      "outputs": [
        {
          "internalType": "uint256",
          "name": "",
          "type": "uint256"
        }
      ],
      "stateMutability": "view",
      "type": "function"
    },
    {
      "inputs": [],
      "name": "getDeadline",
      "outputs": [
        {
          "internalType": "uint256",
          "name": "",
          "type": "uint256"
        }
      ],
      "stateMutability": "view",
      "type": "function"
    },
    {
      "inputs": [],
      "name": "getRepaidAmount",
      "outputs": [
        {
          "internalType": "uint256",
          "name": "",
          "type": "uint256"
        }
      ],
      "stateMutability": "view",
      "type": "function"
    },
    {
      "inputs": [],
      "name": "getSeller",
      "outputs": [
        {
          "internalType": "address",
          "name": "",
          "type": "address"
        }
      ],
      "stateMutability": "view",
      "type": "function"
    },
    {
      "inputs": [],
      "name": "getTotalLoanAmount",
      "outputs": [
        {
          "internalType": "uint256",
          "name": "",
          "type": "uint256"
        }
      ],
      "stateMutability": "view",
      "type": "function"
    },
    {
      "inputs": [],
      "name": "getTotalRepaymenetAmount",
      "outputs": [
        {
          "internalType": "uint256",
          "name": "",
          "type": "uint256"
        }
      ],
      "stateMutability": "view",
      "type": "function"
    },
    {
      "inputs": [],
      "name": "liquidation",
      "outputs": [
        {
          "internalType": "bool",
          "name": "",
          "type": "bool"
        }
      ],
      "stateMutability": "nonpayable",
      "type": "function"
    },
    {
      "inputs": [],
      "name": "margin",
      "outputs": [
        {
          "internalType": "uint256",
          "name": "",
          "type": "uint256"
        }
      ],
      "stateMutability": "view",
      "type": "function"
    },
    {
      "inputs": [],
      "name": "marginValue",
      "outputs": [
        {
          "internalType": "uint256",
          "name": "",
          "type": "uint256"
        }
      ],
      "stateMutability": "view",
      "type": "function"
    },
    {
      "inputs": [],
      "name": "overdue",
      "outputs": [
        {
          "internalType": "bool",
          "name": "",
          "type": "bool"
        }
      ],
      "stateMutability": "view",
      "type": "function"
    },
    {
      "inputs": [],
      "name": "owner",
      "outputs": [
        {
          "internalType": "address",
          "name": "",
          "type": "address"
        }
      ],
      "stateMutability": "view",
      "type": "function"
    },
    {
      "inputs": [],
      "name": "renounceOwnership",
      "outputs": [],
      "stateMutability": "nonpayable",
      "type": "function"
    },
    {
      "inputs": [],
      "name": "sellerLockCollateral",
      "outputs": [
        {
          "internalType": "bool",
          "name": "",
          "type": "bool"
        }
      ],
      "stateMutability": "nonpayable",
      "type": "function"
    },
    {
      "inputs": [],
      "name": "sellerRepay",
      "outputs": [
        {
          "internalType": "uint256",
          "name": "",
          "type": "uint256"
        }
      ],
      "stateMutability": "nonpayable",
      "type": "function"
    },
    {
      "inputs": [],
      "name": "sellerWithdraw",
      "outputs": [
        {
          "internalType": "uint256",
          "name": "",
          "type": "uint256"
        }
      ],
      "stateMutability": "nonpayable",
      "type": "function"
    },
    {
      "inputs": [
        {
          "internalType": "uint256",
          "name": "value",
          "type": "uint256"
        }
      ],
      "name": "setDummyValue",
      "outputs": [],
      "stateMutability": "nonpayable",
      "type": "function"
    },
    {
      "inputs": [
        {
          "internalType": "address",
          "name": "newOwner",
          "type": "address"
        }
      ],
      "name": "transferOwnership",
      "outputs": [],
      "stateMutability": "nonpayable",
      "type": "function"
    }
  ],
  "bytecode": "0x60806040526064600e556014600f556064600f5460646200002191906200051e565b600e5462000030919062000559565b6200003c9190620005d3565b6010556040518060e00160405280605560ff168152602001605a60ff168152602001605f60ff168152602001606460ff168152602001606960ff168152602001606e60ff168152602001607360ff168152506011906007620000a092919062000418565b50348015620000ae57600080fd5b5060405162002b4938038062002b498339818101604052810190620000d49190620006a6565b86600073ffffffffffffffffffffffffffffffffffffffff168173ffffffffffffffffffffffffffffffffffffffff16036200014a5760006040517f1e4fbdf700000000000000000000000000000000000000000000000000000000815260040162000141919062000796565b60405180910390fd5b6200015b816200035460201b60201c565b5088600160006101000a81548173ffffffffffffffffffffffffffffffffffffffff021916908373ffffffffffffffffffffffffffffffffffffffff16021790555087600260006101000a81548173ffffffffffffffffffffffffffffffffffffffff021916908373ffffffffffffffffffffffffffffffffffffffff16021790555086600360006101000a81548173ffffffffffffffffffffffffffffffffffffffff021916908373ffffffffffffffffffffffffffffffffffffffff16021790555085600481905550846005819055506005546006819055504260098190555062015180846200024e919062000559565b6009546200025d9190620007b3565b600a8190555082600b8190555081600c60006101000a81548173ffffffffffffffffffffffffffffffffffffffff021916908373ffffffffffffffffffffffffffffffffffffffff16021790555080600d60006101000a81548173ffffffffffffffffffffffffffffffffffffffff021916908373ffffffffffffffffffffffffffffffffffffffff1602179055506005546007819055503073ffffffffffffffffffffffffffffffffffffffff167fb87bbda1b30b646e3adca70cc17720f20e3ae84d88dfd3c444ad5503d43f2798426040516200033d9190620007ff565b60405180910390a25050505050505050506200081c565b60008060009054906101000a900473ffffffffffffffffffffffffffffffffffffffff169050816000806101000a81548173ffffffffffffffffffffffffffffffffffffffff021916908373ffffffffffffffffffffffffffffffffffffffff1602179055508173ffffffffffffffffffffffffffffffffffffffff168173ffffffffffffffffffffffffffffffffffffffff167f8be0079c531659141344cd1fd0a4f28419497f9722a3daafe3b4186f6b6457e060405160405180910390a35050565b82805482825590600052602060002090601f01602090048101928215620004b35791602002820160005b838211156200048257835183826101000a81548160ff021916908360ff160217905550926020019260010160208160000104928301926001030262000442565b8015620004b15782816101000a81549060ff021916905560010160208160000104928301926001030262000482565b505b509050620004c29190620004c6565b5090565b5b80821115620004e1576000816000905550600101620004c7565b5090565b6000819050919050565b7f4e487b7100000000000000000000000000000000000000000000000000000000600052601160045260246000fd5b60006200052b82620004e5565b91506200053883620004e5565b9250828203905081811115620005535762000552620004ef565b5b92915050565b60006200056682620004e5565b91506200057383620004e5565b92508282026200058381620004e5565b915082820484148315176200059d576200059c620004ef565b5b5092915050565b7f4e487b7100000000000000000000000000000000000000000000000000000000600052601260045260246000fd5b6000620005e082620004e5565b9150620005ed83620004e5565b9250826200060057620005ff620005a4565b5b828204905092915050565b600080fd5b600073ffffffffffffffffffffffffffffffffffffffff82169050919050565b60006200063d8262000610565b9050919050565b6200064f8162000630565b81146200065b57600080fd5b50565b6000815190506200066f8162000644565b92915050565b6200068081620004e5565b81146200068c57600080fd5b50565b600081519050620006a08162000675565b92915050565b60008060008060008060008060006101208a8c031215620006cc57620006cb6200060b565b5b6000620006dc8c828d016200065e565b9950506020620006ef8c828d016200065e565b9850506040620007028c828d016200065e565b9750506060620007158c828d016200068f565b9650506080620007288c828d016200068f565b95505060a06200073b8c828d016200068f565b94505060c06200074e8c828d016200068f565b93505060e0620007618c828d016200065e565b925050610100620007758c828d016200065e565b9150509295985092959850929598565b620007908162000630565b82525050565b6000602082019050620007ad600083018462000785565b92915050565b6000620007c082620004e5565b9150620007cd83620004e5565b9250828201905080821115620007e857620007e7620004ef565b5b92915050565b620007f981620004e5565b82525050565b6000602082019050620008166000830184620007ee565b92915050565b61231d806200082c6000396000f3fe608060405234801561001057600080fd5b50600436106101c45760003560e01c806387f27944116100f9578063dbd0e1b611610097578063f2dfbf6611610071578063f2dfbf6614610483578063f2fde38b146104a1578063f9592143146104bd578063f9cbad89146104db576101c4565b8063dbd0e1b614610429578063e4d9d42b14610447578063f1de2d4314610465576101c4565b8063bdd23414116100d3578063bdd23414146103b3578063c58412d6146103d1578063d5936de3146103ed578063d599a8ab1461040b576101c4565b806387f27944146103595780638da5cb5b146103775780638f76691a14610395576101c4565b80635f8d96de1161016657806366af746b1161014057806366af746b146102f557806367b29744146103135780636c2070a814610331578063715018a61461034f576101c4565b80635f8d96de1461029b578063603daf9a146102b957806361dcd7ab146102d7576101c4565b8063430769a0116101a2578063430769a0146102235780634767663d146102415780634f0dfb261461025f57806353069df61461027d576101c4565b806329dcb0cf146101c9578063315deeaa146101e75780633cbdc39614610205575b600080fd5b6101d161050b565b6040516101de9190611917565b60405180910390f35b6101ef610511565b6040516101fc9190611917565b60405180910390f35b61020d61051b565b60405161021a9190611917565b60405180910390f35b61022b610525565b6040516102389190611917565b60405180910390f35b61024961052b565b6040516102569190611917565b60405180910390f35b61026761087a565b6040516102749190611917565b60405180910390f35b610285610914565b6040516102929190611917565b60405180910390f35b6102a361091e565b6040516102b09190611917565b60405180910390f35b6102c1610928565b6040516102ce9190611973565b60405180910390f35b6102df610952565b6040516102ec9190611917565b60405180910390f35b6102fd610958565b60405161030a9190611917565b60405180910390f35b61031b610c58565b6040516103289190611917565b60405180910390f35b610339610c5e565b60405161034691906119a9565b60405180910390f35b610357610c6d565b005b610361610c81565b60405161036e91906119a9565b60405180910390f35b61037f610c8d565b60405161038c9190611973565b60405180910390f35b61039d610cb6565b6040516103aa9190611917565b60405180910390f35b6103bb610cbc565b6040516103c89190611917565b60405180910390f35b6103eb60048036038101906103e691906119f5565b610cc6565b005b6103f5610cd0565b60405161040291906119a9565b60405180910390f35b610413611020565b60405161042091906119a9565b60405180910390f35b610431611370565b60405161043e9190611973565b60405180910390f35b61044f61139a565b60405161045c9190611917565b60405180910390f35b61046d6113a4565b60405161047a9190611917565b60405180910390f35b61048b6113aa565b60405161049891906119a9565b60405180910390f35b6104bb60048036038101906104b69190611a4e565b611657565b005b6104c56116dd565b6040516104d29190611917565b60405180910390f35b6104f560048036038101906104f091906119f5565b611777565b6040516105029190611a97565b60405180910390f35b600a5481565b6000600454905090565b6000600754905090565b60105481565b6000600260009054906101000a900473ffffffffffffffffffffffffffffffffffffffff1673ffffffffffffffffffffffffffffffffffffffff163373ffffffffffffffffffffffffffffffffffffffff16146105bd576040517f08c379a00000000000000000000000000000000000000000000000000000000081526004016105b490611b35565b60405180910390fd5b60085460075411610603576040517f08c379a00000000000000000000000000000000000000000000000000000000081526004016105fa90611ba1565b60405180910390fd5b600d60009054906101000a900473ffffffffffffffffffffffffffffffffffffffff1673ffffffffffffffffffffffffffffffffffffffff166323b872dd33600160009054906101000a900473ffffffffffffffffffffffffffffffffffffffff166006546040518463ffffffff1660e01b815260040161068693929190611bc1565b6020604051808303816000875af11580156106a5573d6000803e3d6000fd5b505050506040513d601f19601f820116820180604052508101906106c99190611c24565b50600654600860008282546106de9190611c80565b92505081905550426006543373ffffffffffffffffffffffffffffffffffffffff167ff15c97a1500a7f1f069d728d2479c1af81a9f8eef6bf0b01f44183052c20ee2060405160405180910390a46007546008540361087257600c60009054906101000a900473ffffffffffffffffffffffffffffffffffffffff1673ffffffffffffffffffffffffffffffffffffffff1663a9059cbb600260009054906101000a900473ffffffffffffffffffffffffffffffffffffffff166004546040518363ffffffff1660e01b81526004016107b8929190611cb4565b6020604051808303816000875af11580156107d7573d6000803e3d6000fd5b505050506040513d601f19601f820116820180604052508101906107fb9190611c24565b506000600454600260009054906101000a900473ffffffffffffffffffffffffffffffffffffffff1673ffffffffffffffffffffffffffffffffffffffff167f4fc5f55f8ec3831d5ba4ba8e2a3537e025a842802ab104bdf88cb3d28d6f0a6c426040516108699190611917565b60405180910390a45b600654905090565b6000600260009054906101000a900473ffffffffffffffffffffffffffffffffffffffff1673ffffffffffffffffffffffffffffffffffffffff163373ffffffffffffffffffffffffffffffffffffffff161461090c576040517f08c379a000000000000000000000000000000000000000000000000000000000815260040161090390611b35565b60405180910390fd5b600654905090565b6000600854905090565b6000600a54905090565b6000600160009054906101000a900473ffffffffffffffffffffffffffffffffffffffff16905090565b60095481565b6000600260009054906101000a900473ffffffffffffffffffffffffffffffffffffffff1673ffffffffffffffffffffffffffffffffffffffff163373ffffffffffffffffffffffffffffffffffffffff16146109ea576040517f08c379a00000000000000000000000000000000000000000000000000000000081526004016109e190611b35565b60405180910390fd5b600454600c60009054906101000a900473ffffffffffffffffffffffffffffffffffffffff1673ffffffffffffffffffffffffffffffffffffffff166370a08231306040518263ffffffff1660e01b8152600401610a489190611973565b602060405180830381865afa158015610a65573d6000803e3d6000fd5b505050506040513d601f19601f82011682018060405250810190610a899190611cf2565b14610ac9576040517f08c379a0000000000000000000000000000000000000000000000000000000008152600401610ac090611d91565b60405180910390fd5b600060065411610b0e576040517f08c379a0000000000000000000000000000000000000000000000000000000008152600401610b0590611dfd565b60405180910390fd5b600d60009054906101000a900473ffffffffffffffffffffffffffffffffffffffff1673ffffffffffffffffffffffffffffffffffffffff1663a9059cbb600260009054906101000a900473ffffffffffffffffffffffffffffffffffffffff166006546040518363ffffffff1660e01b8152600401610b8f929190611cb4565b6020604051808303816000875af1158015610bae573d6000803e3d6000fd5b505050506040513d601f19601f82011682018060405250810190610bd29190611c24565b5060006006819055506006546000600260009054906101000a900473ffffffffffffffffffffffffffffffffffffffff1673ffffffffffffffffffffffffffffffffffffffff167f4fc5f55f8ec3831d5ba4ba8e2a3537e025a842802ab104bdf88cb3d28d6f0a6c42604051610c489190611917565b60405180910390a4600654905090565b600e5481565b6000601054600e541115905090565b610c756117ab565b610c7f6000611832565b565b6000600a544211905090565b60008060009054906101000a900473ffffffffffffffffffffffffffffffffffffffff16905090565b600f5481565b6000600b54905090565b80600e8190555050565b6000600260009054906101000a900473ffffffffffffffffffffffffffffffffffffffff1673ffffffffffffffffffffffffffffffffffffffff163373ffffffffffffffffffffffffffffffffffffffff1614610d62576040517f08c379a0000000000000000000000000000000000000000000000000000000008152600401610d5990611b35565b60405180910390fd5b600454600c60009054906101000a900473ffffffffffffffffffffffffffffffffffffffff1673ffffffffffffffffffffffffffffffffffffffff166370a08231336040518263ffffffff1660e01b8152600401610dc09190611973565b602060405180830381865afa158015610ddd573d6000803e3d6000fd5b505050506040513d601f19601f82011682018060405250810190610e019190611cf2565b1015610e42576040517f08c379a0000000000000000000000000000000000000000000000000000000008152600401610e3990611e69565b60405180910390fd5b600454600c60009054906101000a900473ffffffffffffffffffffffffffffffffffffffff1673ffffffffffffffffffffffffffffffffffffffff166370a08231306040518263ffffffff1660e01b8152600401610ea09190611973565b602060405180830381865afa158015610ebd573d6000803e3d6000fd5b505050506040513d601f19601f82011682018060405250810190610ee19190611cf2565b10610f21576040517f08c379a0000000000000000000000000000000000000000000000000000000008152600401610f1890611efb565b60405180910390fd5b600c60009054906101000a900473ffffffffffffffffffffffffffffffffffffffff1673ffffffffffffffffffffffffffffffffffffffff166323b872dd33306004546040518463ffffffff1660e01b8152600401610f8293929190611bc1565b6020604051808303816000875af1158015610fa1573d6000803e3d6000fd5b505050506040513d601f19601f82011682018060405250810190610fc59190611c24565b5060006004543373ffffffffffffffffffffffffffffffffffffffff167fce88b439105666372c4d9af0a307046ef3c65c23a8533efd717dd2f04dd87e93426040516110119190611917565b60405180910390a46001905090565b6000600160009054906101000a900473ffffffffffffffffffffffffffffffffffffffff1673ffffffffffffffffffffffffffffffffffffffff163373ffffffffffffffffffffffffffffffffffffffff16146110b2576040517f08c379a00000000000000000000000000000000000000000000000000000000081526004016110a990611f8d565b60405180910390fd5b600554600d60009054906101000a900473ffffffffffffffffffffffffffffffffffffffff1673ffffffffffffffffffffffffffffffffffffffff166370a08231336040518263ffffffff1660e01b81526004016111109190611973565b602060405180830381865afa15801561112d573d6000803e3d6000fd5b505050506040513d601f19601f820116820180604052508101906111519190611cf2565b1015611192576040517f08c379a000000000000000000000000000000000000000000000000000000000815260040161118990611ff9565b60405180910390fd5b600554600d60009054906101000a900473ffffffffffffffffffffffffffffffffffffffff1673ffffffffffffffffffffffffffffffffffffffff166370a08231306040518263ffffffff1660e01b81526004016111f09190611973565b602060405180830381865afa15801561120d573d6000803e3d6000fd5b505050506040513d601f19601f820116820180604052508101906112319190611cf2565b10611271576040517f08c379a000000000000000000000000000000000000000000000000000000000815260040161126890612065565b60405180910390fd5b600d60009054906101000a900473ffffffffffffffffffffffffffffffffffffffff1673ffffffffffffffffffffffffffffffffffffffff166323b872dd33306005546040518463ffffffff1660e01b81526004016112d293929190611bc1565b6020604051808303816000875af11580156112f1573d6000803e3d6000fd5b505050506040513d601f19601f820116820180604052508101906113159190611c24565b5060055460003373ffffffffffffffffffffffffffffffffffffffff167fce88b439105666372c4d9af0a307046ef3c65c23a8533efd717dd2f04dd87e93426040516113619190611917565b60405180910390a46001905090565b6000600260009054906101000a900473ffffffffffffffffffffffffffffffffffffffff16905090565b6000600554905090565b600b5481565b60006113b4610c81565b806113c357506113c2610c5e565b5b611402576040517f08c379a00000000000000000000000000000000000000000000000000000000081526004016113f99061211d565b60405180910390fd5b60075460085410611448576040517f08c379a000000000000000000000000000000000000000000000000000000000815260040161143f90612189565b60405180910390fd5b600c60009054906101000a900473ffffffffffffffffffffffffffffffffffffffff1673ffffffffffffffffffffffffffffffffffffffff1663a9059cbb600160009054906101000a900473ffffffffffffffffffffffffffffffffffffffff166004546040518363ffffffff1660e01b81526004016114c9929190611cb4565b6020604051808303816000875af11580156114e8573d6000803e3d6000fd5b505050506040513d601f19601f8201168201806040525081019061150c9190611c24565b50600d60009054906101000a900473ffffffffffffffffffffffffffffffffffffffff1673ffffffffffffffffffffffffffffffffffffffff1663a9059cbb600160009054906101000a900473ffffffffffffffffffffffffffffffffffffffff166006546040518363ffffffff1660e01b815260040161158e929190611cb4565b6020604051808303816000875af11580156115ad573d6000803e3d6000fd5b505050506040513d601f19601f820116820180604052508101906115d19190611c24565b50600654600454600160009054906101000a900473ffffffffffffffffffffffffffffffffffffffff1673ffffffffffffffffffffffffffffffffffffffff167f4fc5f55f8ec3831d5ba4ba8e2a3537e025a842802ab104bdf88cb3d28d6f0a6c426040516116409190611917565b60405180910390a460006006819055506001905090565b61165f6117ab565b600073ffffffffffffffffffffffffffffffffffffffff168173ffffffffffffffffffffffffffffffffffffffff16036116d15760006040517f1e4fbdf70000000000000000000000000000000000000000000000000000000081526004016116c89190611973565b60405180910390fd5b6116da81611832565b50565b6000806007426040516020016116f391906121ca565b6040516020818303038152906040528051906020012060001c6117169190612214565b905060646011828154811061172e5761172d612245565b5b90600052602060002090602091828204019190069054906101000a900460ff1660ff16600e5461175e9190612274565b61176891906122b6565b600e81905550600e5491505090565b6011818154811061178757600080fd5b9060005260206000209060209182820401919006915054906101000a900460ff1681565b6117b36118f6565b73ffffffffffffffffffffffffffffffffffffffff166117d1610c8d565b73ffffffffffffffffffffffffffffffffffffffff1614611830576117f46118f6565b6040517f118cdaa70000000000000000000000000000000000000000000000000000000081526004016118279190611973565b60405180910390fd5b565b60008060009054906101000a900473ffffffffffffffffffffffffffffffffffffffff169050816000806101000a81548173ffffffffffffffffffffffffffffffffffffffff021916908373ffffffffffffffffffffffffffffffffffffffff1602179055508173ffffffffffffffffffffffffffffffffffffffff168173ffffffffffffffffffffffffffffffffffffffff167f8be0079c531659141344cd1fd0a4f28419497f9722a3daafe3b4186f6b6457e060405160405180910390a35050565b600033905090565b6000819050919050565b611911816118fe565b82525050565b600060208201905061192c6000830184611908565b92915050565b600073ffffffffffffffffffffffffffffffffffffffff82169050919050565b600061195d82611932565b9050919050565b61196d81611952565b82525050565b60006020820190506119886000830184611964565b92915050565b60008115159050919050565b6119a38161198e565b82525050565b60006020820190506119be600083018461199a565b92915050565b600080fd5b6119d2816118fe565b81146119dd57600080fd5b50565b6000813590506119ef816119c9565b92915050565b600060208284031215611a0b57611a0a6119c4565b5b6000611a19848285016119e0565b91505092915050565b611a2b81611952565b8114611a3657600080fd5b50565b600081359050611a4881611a22565b92915050565b600060208284031215611a6457611a636119c4565b5b6000611a7284828501611a39565b91505092915050565b600060ff82169050919050565b611a9181611a7b565b82525050565b6000602082019050611aac6000830184611a88565b92915050565b600082825260208201905092915050565b7f4f6e6c79207468652073656c6c65722063616e2063616c6c207468697320667560008201527f6e6374696f6e0000000000000000000000000000000000000000000000000000602082015250565b6000611b1f602683611ab2565b9150611b2a82611ac3565b604082019050919050565b60006020820190508181036000830152611b4e81611b12565b9050919050565b7f596f75206861766520616c7265616479207265706169642e0000000000000000600082015250565b6000611b8b601883611ab2565b9150611b9682611b55565b602082019050919050565b60006020820190508181036000830152611bba81611b7e565b9050919050565b6000606082019050611bd66000830186611964565b611be36020830185611964565b611bf06040830184611908565b949350505050565b611c018161198e565b8114611c0c57600080fd5b50565b600081519050611c1e81611bf8565b92915050565b600060208284031215611c3a57611c396119c4565b5b6000611c4884828501611c0f565b91505092915050565b7f4e487b7100000000000000000000000000000000000000000000000000000000600052601160045260246000fd5b6000611c8b826118fe565b9150611c96836118fe565b9250828201905080821115611cae57611cad611c51565b5b92915050565b6000604082019050611cc96000830185611964565b611cd66020830184611908565b9392505050565b600081519050611cec816119c9565b92915050565b600060208284031215611d0857611d076119c4565b5b6000611d1684828501611cdd565b91505092915050565b7f596f75206d757374206c6f636b20656e6f75676820636f6c6c61746572616c2060008201527f6265666f7265207769746864726177696e670000000000000000000000000000602082015250565b6000611d7b603283611ab2565b9150611d8682611d1f565b604082019050919050565b60006020820190508181036000830152611daa81611d6e565b9050919050565b7f4e6f206c6f616e20617661696c61626c65000000000000000000000000000000600082015250565b6000611de7601183611ab2565b9150611df282611db1565b602082019050919050565b60006020820190508181036000830152611e1681611dda565b9050919050565b7f4e6f7420656e6f75676820636f6c6c61746572616c0000000000000000000000600082015250565b6000611e53601583611ab2565b9150611e5e82611e1d565b602082019050919050565b60006020820190508181036000830152611e8281611e46565b9050919050565b7f436f6c6c61746572616c2077617320616c7265616479206c6f636b656420707260008201527f6576696f75736c79000000000000000000000000000000000000000000000000602082015250565b6000611ee5602883611ab2565b9150611ef082611e89565b604082019050919050565b60006020820190508181036000830152611f1481611ed8565b9050919050565b7f4f6e6c79207468652062757965722063616e2063616c6c20746869732066756e60008201527f6374696f6e000000000000000000000000000000000000000000000000000000602082015250565b6000611f77602583611ab2565b9150611f8282611f1b565b604082019050919050565b60006020820190508181036000830152611fa681611f6a565b9050919050565b7f4e6f7420656e6f756768206c6f616e20636f696e730000000000000000000000600082015250565b6000611fe3601583611ab2565b9150611fee82611fad565b602082019050919050565b6000602082019050818103600083015261201281611fd6565b9050919050565b7f4c6f616e20636f696e7320616c7265616479206c6f636b656400000000000000600082015250565b600061204f601983611ab2565b915061205a82612019565b602082019050919050565b6000602082019050818103600083015261207e81612042565b9050919050565b7f4c6f616e206973206e6f74206f766572647565206f7220646f6573206e6f742060008201527f6d6565742074686520726571756972656d656e74206f66206d617267696e206360208201527f616c6c2e00000000000000000000000000000000000000000000000000000000604082015250565b6000612107604483611ab2565b915061211282612085565b606082019050919050565b60006020820190508181036000830152612136816120fa565b9050919050565b7f4c6f616e20616c7265616479207265706169642e000000000000000000000000600082015250565b6000612173601483611ab2565b915061217e8261213d565b602082019050919050565b600060208201905081810360008301526121a281612166565b9050919050565b6000819050919050565b6121c46121bf826118fe565b6121a9565b82525050565b60006121d682846121b3565b60208201915081905092915050565b7f4e487b7100000000000000000000000000000000000000000000000000000000600052601260045260246000fd5b600061221f826118fe565b915061222a836118fe565b92508261223a576122396121e5565b5b828206905092915050565b7f4e487b7100000000000000000000000000000000000000000000000000000000600052603260045260246000fd5b600061227f826118fe565b915061228a836118fe565b9250828202612298816118fe565b915082820484148315176122af576122ae611c51565b5b5092915050565b60006122c1826118fe565b91506122cc836118fe565b9250826122dc576122db6121e5565b5b82820490509291505056fea264697066735822122038189d396af4083bd8404f99fbb305a46e104b553c63aeb3254248dbb2b8c46d64736f6c63430008180033",
  "linkReferences": {},
  "deployedLinkReferences": {}
}