{
  "_format": "hh-sol-artifact-1",
  "contractName": "_LoanCoin",
  "sourceName": "contracts/LoanCoin.sol",
  "abi": [
    {
      "inputs": [],
      "stateMutability": "nonpayable",
      "type": "constructor"
    },
    {
      "inputs": [
        {
          "internalType": "address",
          "name": "spender",
          "type": "address"
        },
        {
          "internalType": "uint256",
          "name": "allowance",
          "type": "uint256"
        },
        {
          "internalType": "uint256",
          "name": "needed",
          "type": "uint256"
        }
      ],
      "name": "ERC20InsufficientAllowance",
      "type": "error"
    },
    {
      "inputs": [
        {
          "internalType": "address",
          "name": "sender",
          "type": "address"
        },
        {
          "internalType": "uint256",
          "name": "balance",
          "type": "uint256"
        },
        {
          "internalType": "uint256",
          "name": "needed",
          "type": "uint256"
        }
      ],
      "name": "ERC20InsufficientBalance",
      "type": "error"
    },
    {
      "inputs": [
        {
          "internalType": "address",
          "name": "approver",
          "type": "address"
        }
      ],
      "name": "ERC20InvalidApprover",
      "type": "error"
    },
    {
      "inputs": [
        {
          "internalType": "address",
          "name": "receiver",
          "type": "address"
        }
      ],
      "name": "ERC20InvalidReceiver",
      "type": "error"
    },
    {
      "inputs": [
        {
          "internalType": "address",
          "name": "sender",
          "type": "address"
        }
      ],
      "name": "ERC20InvalidSender",
      "type": "error"
    },
    {
      "inputs": [
        {
          "internalType": "address",
          "name": "spender",
          "type": "address"
        }
      ],
      "name": "ERC20InvalidSpender",
      "type": "error"
    },
    {
      "inputs": [
        {
          "internalType": "address",
          "name": "owner",
          "type": "address"
        }
      ],
      "name": "OwnableInvalidOwner",
      "type": "error"
    },
    {
      "inputs": [
        {
          "internalType": "address",
          "name": "account",
          "type": "address"
        }
      ],
      "name": "OwnableUnauthorizedAccount",
      "type": "error"
    },
    {
      "anonymous": false,
      "inputs": [
        {
          "indexed": true,
          "internalType": "address",
          "name": "owner",
          "type": "address"
        },
        {
          "indexed": true,
          "internalType": "address",
          "name": "spender",
          "type": "address"
        },
        {
          "indexed": false,
          "internalType": "uint256",
          "name": "value",
          "type": "uint256"
        }
      ],
      "name": "Approval",
      "type": "event"
    },
    {
      "anonymous": false,
      "inputs": [
        {
          "indexed": true,
          "internalType": "address",
          "name": "previousOwner",
          "type": "address"
        },
        {
          "indexed": true,
          "internalType": "address",
          "name": "newOwner",
          "type": "address"
        }
      ],
      "name": "OwnershipTransferred",
      "type": "event"
    },
    {
      "anonymous": false,
      "inputs": [
        {
          "indexed": true,
          "internalType": "address",
          "name": "from",
          "type": "address"
        },
        {
          "indexed": true,
          "internalType": "address",
          "name": "to",
          "type": "address"
        },
        {
          "indexed": false,
          "internalType": "uint256",
          "name": "value",
          "type": "uint256"
        }
      ],
      "name": "Transfer",
      "type": "event"
    },
    {
      "inputs": [
        {
          "internalType": "address",
          "name": "owner",
          "type": "address"
        },
        {
          "internalType": "address",
          "name": "spender",
          "type": "address"
        }
      ],
      "name": "allowance",
      "outputs": [
        {
          "internalType": "uint256",
          "name": "",
          "type": "uint256"
        }
      ],
      "stateMutability": "view",
      "type": "function"
    },
    {
      "inputs": [
        {
          "internalType": "address",
          "name": "spender",
          "type": "address"
        },
        {
          "internalType": "uint256",
          "name": "value",
          "type": "uint256"
        }
      ],
      "name": "approve",
      "outputs": [
        {
          "internalType": "bool",
          "name": "",
          "type": "bool"
        }
      ],
      "stateMutability": "nonpayable",
      "type": "function"
    },
    {
      "inputs": [
        {
          "internalType": "address",
          "name": "spender",
          "type": "address"
        }
      ],
      "name": "approveInfinity",
      "outputs": [],
      "stateMutability": "nonpayable",
      "type": "function"
    },
    {
      "inputs": [
        {
          "internalType": "address",
          "name": "account",
          "type": "address"
        }
      ],
      "name": "balanceOf",
      "outputs": [
        {
          "internalType": "uint256",
          "name": "",
          "type": "uint256"
        }
      ],
      "stateMutability": "view",
      "type": "function"
    },
    {
      "inputs": [],
      "name": "decimals",
      "outputs": [
        {
          "internalType": "uint8",
          "name": "",
          "type": "uint8"
        }
      ],
      "stateMutability": "view",
      "type": "function"
    },
    {
      "inputs": [
        {
          "internalType": "address",
          "name": "recipient",
          "type": "address"
        },
        {
          "internalType": "uint256",
          "name": "amount",
          "type": "uint256"
        }
      ],
      "name": "mint",
      "outputs": [],
      "stateMutability": "nonpayable",
      "type": "function"
    },
    {
      "inputs": [],
      "name": "name",
      "outputs": [
        {
          "internalType": "string",
          "name": "",
          "type": "string"
        }
      ],
      "stateMutability": "view",
      "type": "function"
    },
    {
      "inputs": [],
      "name": "owner",
      "outputs": [
        {
          "internalType": "address",
          "name": "",
          "type": "address"
        }
      ],
      "stateMutability": "view",
      "type": "function"
    },
    {
      "inputs": [],
      "name": "renounceOwnership",
      "outputs": [],
      "stateMutability": "nonpayable",
      "type": "function"
    },
    {
      "inputs": [
        {
          "internalType": "address",
          "name": "_minter",
          "type": "address"
        }
      ],
      "name": "setMinterRole",
      "outputs": [],
      "stateMutability": "nonpayable",
      "type": "function"
    },
    {
      "inputs": [],
      "name": "symbol",
      "outputs": [
        {
          "internalType": "string",
          "name": "",
          "type": "string"
        }
      ],
      "stateMutability": "view",
      "type": "function"
    },
    {
      "inputs": [],
      "name": "totalSupply",
      "outputs": [
        {
          "internalType": "uint256",
          "name": "",
          "type": "uint256"
        }
      ],
      "stateMutability": "view",
      "type": "function"
    },
    {
      "inputs": [
        {
          "internalType": "address",
          "name": "to",
          "type": "address"
        },
        {
          "internalType": "uint256",
          "name": "value",
          "type": "uint256"
        }
      ],
      "name": "transfer",
      "outputs": [
        {
          "internalType": "bool",
          "name": "",
          "type": "bool"
        }
      ],
      "stateMutability": "nonpayable",
      "type": "function"
    },
    {
      "inputs": [
        {
          "internalType": "address",
          "name": "from",
          "type": "address"
        },
        {
          "internalType": "address",
          "name": "to",
          "type": "address"
        },
        {
          "internalType": "uint256",
          "name": "value",
          "type": "uint256"
        }
      ],
      "name": "transferFrom",
      "outputs": [
        {
          "internalType": "bool",
          "name": "",
          "type": "bool"
        }
      ],
      "stateMutability": "nonpayable",
      "type": "function"
    },
    {
      "inputs": [
        {
          "internalType": "address",
          "name": "newOwner",
          "type": "address"
        }
      ],
      "name": "transferOwnership",
      "outputs": [],
      "stateMutability": "nonpayable",
      "type": "function"
    }
  ],
  "bytecode": "0x60806040523480156200001157600080fd5b50336040518060400160405280600881526020017f4c6f616e436f696e0000000000000000000000000000000000000000000000008152506040518060400160405280600281526020017f4c430000000000000000000000000000000000000000000000000000000000008152508160039081620000909190620004b3565b508060049081620000a29190620004b3565b505050600073ffffffffffffffffffffffffffffffffffffffff168173ffffffffffffffffffffffffffffffffffffffff16036200011a5760006040517f1e4fbdf7000000000000000000000000000000000000000000000000000000008152600401620001119190620005df565b60405180910390fd5b6200012b816200017360201b60201c565b5033600660006101000a81548173ffffffffffffffffffffffffffffffffffffffff021916908373ffffffffffffffffffffffffffffffffffffffff160217905550620005fc565b6000600560009054906101000a900473ffffffffffffffffffffffffffffffffffffffff16905081600560006101000a81548173ffffffffffffffffffffffffffffffffffffffff021916908373ffffffffffffffffffffffffffffffffffffffff1602179055508173ffffffffffffffffffffffffffffffffffffffff168173ffffffffffffffffffffffffffffffffffffffff167f8be0079c531659141344cd1fd0a4f28419497f9722a3daafe3b4186f6b6457e060405160405180910390a35050565b600081519050919050565b7f4e487b7100000000000000000000000000000000000000000000000000000000600052604160045260246000fd5b7f4e487b7100000000000000000000000000000000000000000000000000000000600052602260045260246000fd5b60006002820490506001821680620002bb57607f821691505b602082108103620002d157620002d062000273565b5b50919050565b60008190508160005260206000209050919050565b60006020601f8301049050919050565b600082821b905092915050565b6000600883026200033b7fffffffffffffffffffffffffffffffffffffffffffffffffffffffffffffffff82620002fc565b620003478683620002fc565b95508019841693508086168417925050509392505050565b6000819050919050565b6000819050919050565b6000620003946200038e62000388846200035f565b62000369565b6200035f565b9050919050565b6000819050919050565b620003b08362000373565b620003c8620003bf826200039b565b84845462000309565b825550505050565b600090565b620003df620003d0565b620003ec818484620003a5565b505050565b5b81811015620004145762000408600082620003d5565b600181019050620003f2565b5050565b601f82111562000463576200042d81620002d7565b6200043884620002ec565b8101602085101562000448578190505b620004606200045785620002ec565b830182620003f1565b50505b505050565b600082821c905092915050565b6000620004886000198460080262000468565b1980831691505092915050565b6000620004a3838362000475565b9150826002028217905092915050565b620004be8262000239565b67ffffffffffffffff811115620004da57620004d962000244565b5b620004e68254620002a2565b620004f382828562000418565b600060209050601f8311600181146200052b576000841562000516578287015190505b62000522858262000495565b86555062000592565b601f1984166200053b86620002d7565b60005b8281101562000565578489015182556001820191506020850194506020810190506200053e565b8683101562000585578489015162000581601f89168262000475565b8355505b6001600288020188555050505b505050505050565b600073ffffffffffffffffffffffffffffffffffffffff82169050919050565b6000620005c7826200059a565b9050919050565b620005d981620005ba565b82525050565b6000602082019050620005f66000830184620005ce565b92915050565b6112c4806200060c6000396000f3fe608060405234801561001057600080fd5b50600436106100f55760003560e01c8063715018a611610097578063a9059cbb11610066578063a9059cbb14610262578063bd7dd79f14610292578063dd62ed3e146102ae578063f2fde38b146102de576100f5565b8063715018a6146102005780638da5cb5b1461020a578063945d12291461022857806395d89b4114610244576100f5565b806323b872dd116100d357806323b872dd14610166578063313ce5671461019657806340c10f19146101b457806370a08231146101d0576100f5565b806306fdde03146100fa578063095ea7b31461011857806318160ddd14610148575b600080fd5b6101026102fa565b60405161010f9190610f18565b60405180910390f35b610132600480360381019061012d9190610fd3565b61038c565b60405161013f919061102e565b60405180910390f35b6101506103af565b60405161015d9190611058565b60405180910390f35b610180600480360381019061017b9190611073565b6103b9565b60405161018d919061102e565b60405180910390f35b61019e6103e8565b6040516101ab91906110e2565b60405180910390f35b6101ce60048036038101906101c99190610fd3565b6103f1565b005b6101ea60048036038101906101e591906110fd565b610459565b6040516101f79190611058565b60405180910390f35b6102086104a1565b005b6102126104b5565b60405161021f9190611139565b60405180910390f35b610242600480360381019061023d91906110fd565b6104df565b005b61024c61052b565b6040516102599190610f18565b60405180910390f35b61027c60048036038101906102779190610fd3565b6105bd565b604051610289919061102e565b60405180910390f35b6102ac60048036038101906102a791906110fd565b6105e0565b005b6102c860048036038101906102c39190611154565b61060e565b6040516102d59190611058565b60405180910390f35b6102f860048036038101906102f391906110fd565b610695565b005b606060038054610309906111c3565b80601f0160208091040260200160405190810160405280929190818152602001828054610335906111c3565b80156103825780601f1061035757610100808354040283529160200191610382565b820191906000526020600020905b81548152906001019060200180831161036557829003601f168201915b5050505050905090565b60008061039761071b565b90506103a4818585610723565b600191505092915050565b6000600254905090565b6000806103c461071b565b90506103d1858285610735565b6103dc8585856107c9565b60019150509392505050565b60006012905090565b600660009054906101000a900473ffffffffffffffffffffffffffffffffffffffff1673ffffffffffffffffffffffffffffffffffffffff163373ffffffffffffffffffffffffffffffffffffffff161461044b57600080fd5b61045582826108bd565b5050565b60008060008373ffffffffffffffffffffffffffffffffffffffff1673ffffffffffffffffffffffffffffffffffffffff168152602001908152602001600020549050919050565b6104a961093f565b6104b360006109c6565b565b6000600560009054906101000a900473ffffffffffffffffffffffffffffffffffffffff16905090565b6104e761093f565b80600660006101000a81548173ffffffffffffffffffffffffffffffffffffffff021916908373ffffffffffffffffffffffffffffffffffffffff16021790555050565b60606004805461053a906111c3565b80601f0160208091040260200160405190810160405280929190818152602001828054610566906111c3565b80156105b35780601f10610588576101008083540402835291602001916105b3565b820191906000526020600020905b81548152906001019060200180831161059657829003601f168201915b5050505050905090565b6000806105c861071b565b90506105d58185856107c9565b600191505092915050565b61060a817fffffffffffffffffffffffffffffffffffffffffffffffffffffffffffffffff61038c565b5050565b6000600160008473ffffffffffffffffffffffffffffffffffffffff1673ffffffffffffffffffffffffffffffffffffffff16815260200190815260200160002060008373ffffffffffffffffffffffffffffffffffffffff1673ffffffffffffffffffffffffffffffffffffffff16815260200190815260200160002054905092915050565b61069d61093f565b600073ffffffffffffffffffffffffffffffffffffffff168173ffffffffffffffffffffffffffffffffffffffff160361070f5760006040517f1e4fbdf70000000000000000000000000000000000000000000000000000000081526004016107069190611139565b60405180910390fd5b610718816109c6565b50565b600033905090565b6107308383836001610a8c565b505050565b6000610741848461060e565b90507fffffffffffffffffffffffffffffffffffffffffffffffffffffffffffffffff81146107c357818110156107b3578281836040517ffb8f41b20000000000000000000000000000000000000000000000000000000081526004016107aa939291906111f4565b60405180910390fd5b6107c284848484036000610a8c565b5b50505050565b600073ffffffffffffffffffffffffffffffffffffffff168373ffffffffffffffffffffffffffffffffffffffff160361083b5760006040517f96c6fd1e0000000000000000000000000000000000000000000000000000000081526004016108329190611139565b60405180910390fd5b600073ffffffffffffffffffffffffffffffffffffffff168273ffffffffffffffffffffffffffffffffffffffff16036108ad5760006040517fec442f050000000000000000000000000000000000000000000000000000000081526004016108a49190611139565b60405180910390fd5b6108b8838383610c63565b505050565b600073ffffffffffffffffffffffffffffffffffffffff168273ffffffffffffffffffffffffffffffffffffffff160361092f5760006040517fec442f050000000000000000000000000000000000000000000000000000000081526004016109269190611139565b60405180910390fd5b61093b60008383610c63565b5050565b61094761071b565b73ffffffffffffffffffffffffffffffffffffffff166109656104b5565b73ffffffffffffffffffffffffffffffffffffffff16146109c45761098861071b565b6040517f118cdaa70000000000000000000000000000000000000000000000000000000081526004016109bb9190611139565b60405180910390fd5b565b6000600560009054906101000a900473ffffffffffffffffffffffffffffffffffffffff16905081600560006101000a81548173ffffffffffffffffffffffffffffffffffffffff021916908373ffffffffffffffffffffffffffffffffffffffff1602179055508173ffffffffffffffffffffffffffffffffffffffff168173ffffffffffffffffffffffffffffffffffffffff167f8be0079c531659141344cd1fd0a4f28419497f9722a3daafe3b4186f6b6457e060405160405180910390a35050565b600073ffffffffffffffffffffffffffffffffffffffff168473ffffffffffffffffffffffffffffffffffffffff1603610afe5760006040517fe602df05000000000000000000000000000000000000000000000000000000008152600401610af59190611139565b60405180910390fd5b600073ffffffffffffffffffffffffffffffffffffffff168373ffffffffffffffffffffffffffffffffffffffff1603610b705760006040517f94280d62000000000000000000000000000000000000000000000000000000008152600401610b679190611139565b60405180910390fd5b81600160008673ffffffffffffffffffffffffffffffffffffffff1673ffffffffffffffffffffffffffffffffffffffff16815260200190815260200160002060008573ffffffffffffffffffffffffffffffffffffffff1673ffffffffffffffffffffffffffffffffffffffff168152602001908152602001600020819055508015610c5d578273ffffffffffffffffffffffffffffffffffffffff168473ffffffffffffffffffffffffffffffffffffffff167f8c5be1e5ebec7d5bd14f71427d1e84f3dd0314c0f7b2291e5b200ac8c7c3b92584604051610c549190611058565b60405180910390a35b50505050565b600073ffffffffffffffffffffffffffffffffffffffff168373ffffffffffffffffffffffffffffffffffffffff1603610cb5578060026000828254610ca9919061125a565b92505081905550610d88565b60008060008573ffffffffffffffffffffffffffffffffffffffff1673ffffffffffffffffffffffffffffffffffffffff16815260200190815260200160002054905081811015610d41578381836040517fe450d38c000000000000000000000000000000000000000000000000000000008152600401610d38939291906111f4565b60405180910390fd5b8181036000808673ffffffffffffffffffffffffffffffffffffffff1673ffffffffffffffffffffffffffffffffffffffff16815260200190815260200160002081905550505b600073ffffffffffffffffffffffffffffffffffffffff168273ffffffffffffffffffffffffffffffffffffffff1603610dd15780600260008282540392505081905550610e1e565b806000808473ffffffffffffffffffffffffffffffffffffffff1673ffffffffffffffffffffffffffffffffffffffff168152602001908152602001600020600082825401925050819055505b8173ffffffffffffffffffffffffffffffffffffffff168373ffffffffffffffffffffffffffffffffffffffff167fddf252ad1be2c89b69c2b068fc378daa952ba7f163c4a11628f55a4df523b3ef83604051610e7b9190611058565b60405180910390a3505050565b600081519050919050565b600082825260208201905092915050565b60005b83811015610ec2578082015181840152602081019050610ea7565b60008484015250505050565b6000601f19601f8301169050919050565b6000610eea82610e88565b610ef48185610e93565b9350610f04818560208601610ea4565b610f0d81610ece565b840191505092915050565b60006020820190508181036000830152610f328184610edf565b905092915050565b600080fd5b600073ffffffffffffffffffffffffffffffffffffffff82169050919050565b6000610f6a82610f3f565b9050919050565b610f7a81610f5f565b8114610f8557600080fd5b50565b600081359050610f9781610f71565b92915050565b6000819050919050565b610fb081610f9d565b8114610fbb57600080fd5b50565b600081359050610fcd81610fa7565b92915050565b60008060408385031215610fea57610fe9610f3a565b5b6000610ff885828601610f88565b925050602061100985828601610fbe565b9150509250929050565b60008115159050919050565b61102881611013565b82525050565b6000602082019050611043600083018461101f565b92915050565b61105281610f9d565b82525050565b600060208201905061106d6000830184611049565b92915050565b60008060006060848603121561108c5761108b610f3a565b5b600061109a86828701610f88565b93505060206110ab86828701610f88565b92505060406110bc86828701610fbe565b9150509250925092565b600060ff82169050919050565b6110dc816110c6565b82525050565b60006020820190506110f760008301846110d3565b92915050565b60006020828403121561111357611112610f3a565b5b600061112184828501610f88565b91505092915050565b61113381610f5f565b82525050565b600060208201905061114e600083018461112a565b92915050565b6000806040838503121561116b5761116a610f3a565b5b600061117985828601610f88565b925050602061118a85828601610f88565b9150509250929050565b7f4e487b7100000000000000000000000000000000000000000000000000000000600052602260045260246000fd5b600060028204905060018216806111db57607f821691505b6020821081036111ee576111ed611194565b5b50919050565b6000606082019050611209600083018661112a565b6112166020830185611049565b6112236040830184611049565b949350505050565b7f4e487b7100000000000000000000000000000000000000000000000000000000600052601160045260246000fd5b600061126582610f9d565b915061127083610f9d565b92508282019050808211156112885761128761122b565b5b9291505056fea2646970667358221220b37478199e68e50f75ca0777f3b134c30a7337c0cbb48bd7528bfd94e36fec9264736f6c63430008180033",
  "linkReferences": {},
  "deployedLinkReferences": {}
}