{
  "_format": "hh-sol-artifact-1",
  "contractName": "LoanContract",
  "sourceName": "contracts/LoanContract.sol",
  "abi": [
    {
      "inputs": [
        {
          "internalType": "address",
          "name": "_buyer",
          "type": "address"
        },
        {
          "internalType": "address",
          "name": "_seller",
          "type": "address"
        },
        {
          "internalType": "address",
          "name": "_contractOwner",
          "type": "address"
        },
        {
          "internalType": "uint256",
          "name": "_collateralAmount",
          "type": "uint256"
        },
        {
          "internalType": "uint256",
          "name": "_loanAmount",
          "type": "uint256"
        },
        {
          "internalType": "uint256",
          "name": "_loanDuration",
          "type": "uint256"
        },
        {
          "internalType": "uint256",
          "name": "_arrayIndex",
          "type": "uint256"
        },
        {
          "internalType": "address",
          "name": "_collateralCoinAddress",
          "type": "address"
        },
        {
          "internalType": "address",
          "name": "_loanCoinAddress",
          "type": "address"
        }
      ],
      "stateMutability": "nonpayable",
      "type": "constructor"
    },
    {
      "inputs": [
        {
          "internalType": "address",
          "name": "owner",
          "type": "address"
        }
      ],
      "name": "OwnableInvalidOwner",
      "type": "error"
    },
    {
      "inputs": [
        {
          "internalType": "address",
          "name": "account",
          "type": "address"
        }
      ],
      "name": "OwnableUnauthorizedAccount",
      "type": "error"
    },
    {
      "anonymous": false,
      "inputs": [
        {
          "indexed": true,
          "internalType": "address",
          "name": "previousOwner",
          "type": "address"
        },
        {
          "indexed": true,
          "internalType": "address",
          "name": "newOwner",
          "type": "address"
        }
      ],
      "name": "OwnershipTransferred",
      "type": "event"
    },
    {
      "anonymous": false,
      "inputs": [
        {
          "indexed": true,
          "internalType": "address",
          "name": "_contractAddress",
          "type": "address"
        },
        {
          "indexed": false,
          "internalType": "uint256",
          "name": "time",
          "type": "uint256"
        }
      ],
      "name": "contractDeployed",
      "type": "event"
    },
    {
      "anonymous": false,
      "inputs": [
        {
          "indexed": true,
          "internalType": "address",
          "name": "_from",
          "type": "address"
        },
        {
          "indexed": true,
          "internalType": "uint256",
          "name": "_collateralCoinAmount",
          "type": "uint256"
        },
        {
          "indexed": true,
          "internalType": "uint256",
          "name": "_loanCoinAmount",
          "type": "uint256"
        },
        {
          "indexed": false,
          "internalType": "uint256",
          "name": "_time",
          "type": "uint256"
        }
      ],
      "name": "deposit",
      "type": "event"
    },
    {
      "anonymous": false,
      "inputs": [
        {
          "indexed": true,
          "internalType": "address",
          "name": "_from",
          "type": "address"
        },
        {
          "indexed": true,
          "internalType": "uint256",
          "name": "_amount",
          "type": "uint256"
        },
        {
          "indexed": true,
          "internalType": "uint256",
          "name": "_time",
          "type": "uint256"
        }
      ],
      "name": "repayment",
      "type": "event"
    },
    {
      "anonymous": false,
      "inputs": [
        {
          "indexed": true,
          "internalType": "address",
          "name": "_to",
          "type": "address"
        },
        {
          "indexed": true,
          "internalType": "uint256",
          "name": "_collateralCoinAmount",
          "type": "uint256"
        },
        {
          "indexed": true,
          "internalType": "uint256",
          "name": "_loanCoinAmount",
          "type": "uint256"
        },
        {
          "indexed": false,
          "internalType": "uint256",
          "name": "_time",
          "type": "uint256"
        }
      ],
      "name": "withdrawal",
      "type": "event"
    },
    {
      "inputs": [],
      "name": "arrayIndex",
      "outputs": [
        {
          "internalType": "uint256",
          "name": "",
          "type": "uint256"
        }
      ],
      "stateMutability": "view",
      "type": "function"
    },
    {
      "inputs": [],
      "name": "buyerLockLoan",
      "outputs": [
        {
          "internalType": "bool",
          "name": "",
          "type": "bool"
        }
      ],
      "stateMutability": "nonpayable",
      "type": "function"
    },
    {
      "inputs": [],
      "name": "createTime",
      "outputs": [
        {
          "internalType": "uint256",
          "name": "",
          "type": "uint256"
        }
      ],
      "stateMutability": "view",
      "type": "function"
    },
    {
      "inputs": [],
      "name": "currentCollateralValue",
      "outputs": [
        {
          "internalType": "uint256",
          "name": "",
          "type": "uint256"
        }
      ],
      "stateMutability": "view",
      "type": "function"
    },
    {
      "inputs": [],
      "name": "deadline",
      "outputs": [
        {
          "internalType": "uint256",
          "name": "",
          "type": "uint256"
        }
      ],
      "stateMutability": "view",
      "type": "function"
    },
    {
      "inputs": [],
      "name": "dropExceedsMargin",
      "outputs": [
        {
          "internalType": "bool",
          "name": "",
          "type": "bool"
        }
      ],
      "stateMutability": "view",
      "type": "function"
    },
    {
      "inputs": [],
      "name": "dummyPriceAdjuster",
      "outputs": [
        {
          "internalType": "uint256",
          "name": "",
          "type": "uint256"
        }
      ],
      "stateMutability": "nonpayable",
      "type": "function"
    },
    {
      "inputs": [
        {
          "internalType": "uint256",
          "name": "",
          "type": "uint256"
        }
      ],
      "name": "dummyPriceDrops",
      "outputs": [
        {
          "internalType": "uint8",
          "name": "",
          "type": "uint8"
        }
      ],
      "stateMutability": "view",
      "type": "function"
    },
    {
      "inputs": [],
      "name": "getArrayIndex",
      "outputs": [
        {
          "internalType": "uint256",
          "name": "",
          "type": "uint256"
        }
      ],
      "stateMutability": "view",
      "type": "function"
    },
    {
      "inputs": [],
      "name": "getAvailableLoanAmount",
      "outputs": [
        {
          "internalType": "uint256",
          "name": "",
          "type": "uint256"
        }
      ],
      "stateMutability": "view",
      "type": "function"
    },
    {
      "inputs": [],
      "name": "getBuyer",
      "outputs": [
        {
          "internalType": "address",
          "name": "",
          "type": "address"
        }
      ],
      "stateMutability": "view",
      "type": "function"
    },
    {
      "inputs": [],
      "name": "getCollateralAmount",
      "outputs": [
        {
          "internalType": "uint256",
          "name": "",
          "type": "uint256"
        }
      ],
      "stateMutability": "view",
      "type": "function"
    },
    {
      "inputs": [],
      "name": "getDeadline",
      "outputs": [
        {
          "internalType": "uint256",
          "name": "",
          "type": "uint256"
        }
      ],
      "stateMutability": "view",
      "type": "function"
    },
    {
      "inputs": [],
      "name": "getRepaidAmount",
      "outputs": [
        {
          "internalType": "uint256",
          "name": "",
          "type": "uint256"
        }
      ],
      "stateMutability": "view",
      "type": "function"
    },
    {
      "inputs": [],
      "name": "getSeller",
      "outputs": [
        {
          "internalType": "address",
          "name": "",
          "type": "address"
        }
      ],
      "stateMutability": "view",
      "type": "function"
    },
    {
      "inputs": [],
      "name": "getTotalLoanAmount",
      "outputs": [
        {
          "internalType": "uint256",
          "name": "",
          "type": "uint256"
        }
      ],
      "stateMutability": "view",
      "type": "function"
    },
    {
      "inputs": [],
      "name": "getTotalRepaymenetAmount",
      "outputs": [
        {
          "internalType": "uint256",
          "name": "",
          "type": "uint256"
        }
      ],
      "stateMutability": "view",
      "type": "function"
    },
    {
      "inputs": [],
      "name": "liquidation",
      "outputs": [
        {
          "internalType": "bool",
          "name": "",
          "type": "bool"
        }
      ],
      "stateMutability": "nonpayable",
      "type": "function"
    },
    {
      "inputs": [],
      "name": "margin",
      "outputs": [
        {
          "internalType": "uint256",
          "name": "",
          "type": "uint256"
        }
      ],
      "stateMutability": "view",
      "type": "function"
    },
    {
      "inputs": [],
      "name": "marginValue",
      "outputs": [
        {
          "internalType": "uint256",
          "name": "",
          "type": "uint256"
        }
      ],
      "stateMutability": "view",
      "type": "function"
    },
    {
      "inputs": [],
      "name": "overdue",
      "outputs": [
        {
          "internalType": "bool",
          "name": "",
          "type": "bool"
        }
      ],
      "stateMutability": "view",
      "type": "function"
    },
    {
      "inputs": [],
      "name": "owner",
      "outputs": [
        {
          "internalType": "address",
          "name": "",
          "type": "address"
        }
      ],
      "stateMutability": "view",
      "type": "function"
    },
    {
      "inputs": [],
      "name": "renounceOwnership",
      "outputs": [],
      "stateMutability": "nonpayable",
      "type": "function"
    },
    {
      "inputs": [],
      "name": "sellerLockCollateral",
      "outputs": [
        {
          "internalType": "bool",
          "name": "",
          "type": "bool"
        }
      ],
      "stateMutability": "nonpayable",
      "type": "function"
    },
    {
      "inputs": [
        {
          "internalType": "uint256",
          "name": "amount",
          "type": "uint256"
        }
      ],
      "name": "sellerRepay",
      "outputs": [
        {
          "internalType": "uint256",
          "name": "",
          "type": "uint256"
        }
      ],
      "stateMutability": "nonpayable",
      "type": "function"
    },
    {
      "inputs": [
        {
          "internalType": "uint256",
          "name": "amount",
          "type": "uint256"
        }
      ],
      "name": "sellerWithdraw",
      "outputs": [
        {
          "internalType": "uint256",
          "name": "",
          "type": "uint256"
        }
      ],
      "stateMutability": "nonpayable",
      "type": "function"
    },
    {
      "inputs": [
        {
          "internalType": "uint256",
          "name": "value",
          "type": "uint256"
        }
      ],
      "name": "setDummyValue",
      "outputs": [],
      "stateMutability": "nonpayable",
      "type": "function"
    },
    {
      "inputs": [
        {
          "internalType": "address",
          "name": "newOwner",
          "type": "address"
        }
      ],
      "name": "transferOwnership",
      "outputs": [],
      "stateMutability": "nonpayable",
      "type": "function"
    }
  ],
  "bytecode": "0x60806040526064600e556014600f556064600f5460646200002191906200051e565b600e5462000030919062000559565b6200003c9190620005d3565b6010556040518060e00160405280605560ff168152602001605a60ff168152602001605f60ff168152602001606460ff168152602001606960ff168152602001606e60ff168152602001607360ff168152506011906007620000a092919062000418565b50348015620000ae57600080fd5b5060405162002e7138038062002e718339818101604052810190620000d49190620006a6565b86600073ffffffffffffffffffffffffffffffffffffffff168173ffffffffffffffffffffffffffffffffffffffff16036200014a5760006040517f1e4fbdf700000000000000000000000000000000000000000000000000000000815260040162000141919062000796565b60405180910390fd5b6200015b816200035460201b60201c565b5088600160006101000a81548173ffffffffffffffffffffffffffffffffffffffff021916908373ffffffffffffffffffffffffffffffffffffffff16021790555087600260006101000a81548173ffffffffffffffffffffffffffffffffffffffff021916908373ffffffffffffffffffffffffffffffffffffffff16021790555086600360006101000a81548173ffffffffffffffffffffffffffffffffffffffff021916908373ffffffffffffffffffffffffffffffffffffffff16021790555085600481905550846005819055506005546006819055504260098190555062015180846200024e919062000559565b6009546200025d9190620007b3565b600a8190555082600b8190555081600c60006101000a81548173ffffffffffffffffffffffffffffffffffffffff021916908373ffffffffffffffffffffffffffffffffffffffff16021790555080600d60006101000a81548173ffffffffffffffffffffffffffffffffffffffff021916908373ffffffffffffffffffffffffffffffffffffffff1602179055506005546007819055503073ffffffffffffffffffffffffffffffffffffffff167fb87bbda1b30b646e3adca70cc17720f20e3ae84d88dfd3c444ad5503d43f2798426040516200033d9190620007ff565b60405180910390a25050505050505050506200081c565b60008060009054906101000a900473ffffffffffffffffffffffffffffffffffffffff169050816000806101000a81548173ffffffffffffffffffffffffffffffffffffffff021916908373ffffffffffffffffffffffffffffffffffffffff1602179055508173ffffffffffffffffffffffffffffffffffffffff168173ffffffffffffffffffffffffffffffffffffffff167f8be0079c531659141344cd1fd0a4f28419497f9722a3daafe3b4186f6b6457e060405160405180910390a35050565b82805482825590600052602060002090601f01602090048101928215620004b35791602002820160005b838211156200048257835183826101000a81548160ff021916908360ff160217905550926020019260010160208160000104928301926001030262000442565b8015620004b15782816101000a81549060ff021916905560010160208160000104928301926001030262000482565b505b509050620004c29190620004c6565b5090565b5b80821115620004e1576000816000905550600101620004c7565b5090565b6000819050919050565b7f4e487b7100000000000000000000000000000000000000000000000000000000600052601160045260246000fd5b60006200052b82620004e5565b91506200053883620004e5565b9250828203905081811115620005535762000552620004ef565b5b92915050565b60006200056682620004e5565b91506200057383620004e5565b92508282026200058381620004e5565b915082820484148315176200059d576200059c620004ef565b5b5092915050565b7f4e487b7100000000000000000000000000000000000000000000000000000000600052601260045260246000fd5b6000620005e082620004e5565b9150620005ed83620004e5565b9250826200060057620005ff620005a4565b5b828204905092915050565b600080fd5b600073ffffffffffffffffffffffffffffffffffffffff82169050919050565b60006200063d8262000610565b9050919050565b6200064f8162000630565b81146200065b57600080fd5b50565b6000815190506200066f8162000644565b92915050565b6200068081620004e5565b81146200068c57600080fd5b50565b600081519050620006a08162000675565b92915050565b60008060008060008060008060006101208a8c031215620006cc57620006cb6200060b565b5b6000620006dc8c828d016200065e565b9950506020620006ef8c828d016200065e565b9850506040620007028c828d016200065e565b9750506060620007158c828d016200068f565b9650506080620007288c828d016200068f565b95505060a06200073b8c828d016200068f565b94505060c06200074e8c828d016200068f565b93505060e0620007618c828d016200065e565b925050610100620007758c828d016200065e565b9150509295985092959850929598565b620007908162000630565b82525050565b6000602082019050620007ad600083018462000785565b92915050565b6000620007c082620004e5565b9150620007cd83620004e5565b9250828201905080821115620007e857620007e7620004ef565b5b92915050565b620007f981620004e5565b82525050565b6000602082019050620008166000830184620007ee565b92915050565b612645806200082c6000396000f3fe608060405234801561001057600080fd5b50600436106101c45760003560e01c806387f27944116100f9578063dbd0e1b611610097578063f2dfbf6611610071578063f2dfbf66146104a7578063f2fde38b146104c5578063f9592143146104e1578063f9cbad89146104ff576101c4565b8063dbd0e1b61461044d578063e4d9d42b1461046b578063f1de2d4314610489576101c4565b8063bdd23414116100d3578063bdd23414146103d7578063c58412d6146103f5578063d5936de314610411578063d599a8ab1461042f576101c4565b806387f279441461037d5780638da5cb5b1461039b5780638f76691a146103b9576101c4565b80635f8d96de1161016657806367b297441161014057806367b29744146103075780636c2070a814610325578063715018a614610343578063864ae8cd1461034d576101c4565b80635f8d96de146102ad578063603daf9a146102cb57806361dcd7ab146102e9576101c4565b80633cbdc396116101a25780633cbdc39614610235578063430769a0146102535780634f0dfb261461027157806353069df61461028f576101c4565b806321564656146101c957806329dcb0cf146101f9578063315deeaa14610217575b600080fd5b6101e360048036038101906101de9190611c73565b61052f565b6040516101f09190611caf565b60405180910390f35b61020161085c565b60405161020e9190611caf565b60405180910390f35b61021f610862565b60405161022c9190611caf565b60405180910390f35b61023d61086c565b60405161024a9190611caf565b60405180910390f35b61025b610996565b6040516102689190611caf565b60405180910390f35b61027961099c565b6040516102869190611caf565b60405180910390f35b610297610a36565b6040516102a49190611caf565b60405180910390f35b6102b5610b60565b6040516102c29190611caf565b60405180910390f35b6102d3610b6a565b6040516102e09190611d0b565b60405180910390f35b6102f1610b94565b6040516102fe9190611caf565b60405180910390f35b61030f610b9a565b60405161031c9190611caf565b60405180910390f35b61032d610ba0565b60405161033a9190611d41565b60405180910390f35b61034b610baf565b005b61036760048036038101906103629190611c73565b610bc3565b6040516103749190611caf565b60405180910390f35b610385610e9b565b6040516103929190611d41565b60405180910390f35b6103a3610ea7565b6040516103b09190611d0b565b60405180910390f35b6103c1610ed0565b6040516103ce9190611caf565b60405180910390f35b6103df610ed6565b6040516103ec9190611caf565b60405180910390f35b61040f600480360381019061040a9190611c73565b610ee0565b005b610419610eea565b6040516104269190611d41565b60405180910390f35b61043761123a565b6040516104449190611d41565b60405180910390f35b61045561158a565b6040516104629190611d0b565b60405180910390f35b6104736115b4565b6040516104809190611caf565b60405180910390f35b6104916115be565b60405161049e9190611caf565b60405180910390f35b6104af6115c4565b6040516104bc9190611d41565b60405180910390f35b6104df60048036038101906104da9190611d88565b611991565b005b6104e9611a17565b6040516104f69190611caf565b60405180910390f35b61051960048036038101906105149190611c73565b611ab1565b6040516105269190611dd1565b60405180910390f35b6000600260009054906101000a900473ffffffffffffffffffffffffffffffffffffffff1673ffffffffffffffffffffffffffffffffffffffff163373ffffffffffffffffffffffffffffffffffffffff16146105c1576040517f08c379a00000000000000000000000000000000000000000000000000000000081526004016105b890611e6f565b60405180910390fd5b6008546007546105d19190611ebe565b8211156105eb576008546007546105e89190611ebe565b91505b600d60009054906101000a900473ffffffffffffffffffffffffffffffffffffffff1673ffffffffffffffffffffffffffffffffffffffff166323b872dd33600160009054906101000a900473ffffffffffffffffffffffffffffffffffffffff16856040518463ffffffff1660e01b815260040161066c93929190611ef2565b6020604051808303816000875af115801561068b573d6000803e3d6000fd5b505050506040513d601f19601f820116820180604052508101906106af9190611f55565b5081600860008282546106c29190611f82565b9250508190555042823373ffffffffffffffffffffffffffffffffffffffff167ff15c97a1500a7f1f069d728d2479c1af81a9f8eef6bf0b01f44183052c20ee2060405160405180910390a46007546008540361085457600c60009054906101000a900473ffffffffffffffffffffffffffffffffffffffff1673ffffffffffffffffffffffffffffffffffffffff1663a9059cbb600260009054906101000a900473ffffffffffffffffffffffffffffffffffffffff166004546040518363ffffffff1660e01b815260040161079a929190611fb6565b6020604051808303816000875af11580156107b9573d6000803e3d6000fd5b505050506040513d601f19601f820116820180604052508101906107dd9190611f55565b506000600454600260009054906101000a900473ffffffffffffffffffffffffffffffffffffffff1673ffffffffffffffffffffffffffffffffffffffff167f4fc5f55f8ec3831d5ba4ba8e2a3537e025a842802ab104bdf88cb3d28d6f0a6c4260405161084b9190611caf565b60405180910390a45b819050919050565b600a5481565b6000600454905090565b6000600160009054906101000a900473ffffffffffffffffffffffffffffffffffffffff1673ffffffffffffffffffffffffffffffffffffffff163373ffffffffffffffffffffffffffffffffffffffff16146108fe576040517f08c379a00000000000000000000000000000000000000000000000000000000081526004016108f590612051565b60405180910390fd5b600260009054906101000a900473ffffffffffffffffffffffffffffffffffffffff1673ffffffffffffffffffffffffffffffffffffffff163373ffffffffffffffffffffffffffffffffffffffff161461098e576040517f08c379a000000000000000000000000000000000000000000000000000000000815260040161098590611e6f565b60405180910390fd5b600754905090565b60105481565b6000600260009054906101000a900473ffffffffffffffffffffffffffffffffffffffff1673ffffffffffffffffffffffffffffffffffffffff163373ffffffffffffffffffffffffffffffffffffffff1614610a2e576040517f08c379a0000000000000000000000000000000000000000000000000000000008152600401610a2590611e6f565b60405180910390fd5b600654905090565b6000600160009054906101000a900473ffffffffffffffffffffffffffffffffffffffff1673ffffffffffffffffffffffffffffffffffffffff163373ffffffffffffffffffffffffffffffffffffffff1614610ac8576040517f08c379a0000000000000000000000000000000000000000000000000000000008152600401610abf90612051565b60405180910390fd5b600260009054906101000a900473ffffffffffffffffffffffffffffffffffffffff1673ffffffffffffffffffffffffffffffffffffffff163373ffffffffffffffffffffffffffffffffffffffff1614610b58576040517f08c379a0000000000000000000000000000000000000000000000000000000008152600401610b4f90611e6f565b60405180910390fd5b600854905090565b6000600a54905090565b6000600160009054906101000a900473ffffffffffffffffffffffffffffffffffffffff16905090565b60095481565b600e5481565b6000601054600e541115905090565b610bb7611ae5565b610bc16000611b6c565b565b6000600260009054906101000a900473ffffffffffffffffffffffffffffffffffffffff1673ffffffffffffffffffffffffffffffffffffffff163373ffffffffffffffffffffffffffffffffffffffff1614610c55576040517f08c379a0000000000000000000000000000000000000000000000000000000008152600401610c4c90611e6f565b60405180910390fd5b600454600c60009054906101000a900473ffffffffffffffffffffffffffffffffffffffff1673ffffffffffffffffffffffffffffffffffffffff166370a08231306040518263ffffffff1660e01b8152600401610cb39190611d0b565b602060405180830381865afa158015610cd0573d6000803e3d6000fd5b505050506040513d601f19601f82011682018060405250810190610cf49190612086565b14610d34576040517f08c379a0000000000000000000000000000000000000000000000000000000008152600401610d2b90612125565b60405180910390fd5b600654821115610d445760065491505b600d60009054906101000a900473ffffffffffffffffffffffffffffffffffffffff1673ffffffffffffffffffffffffffffffffffffffff1663a9059cbb600260009054906101000a900473ffffffffffffffffffffffffffffffffffffffff16846040518363ffffffff1660e01b8152600401610dc3929190611fb6565b6020604051808303816000875af1158015610de2573d6000803e3d6000fd5b505050506040513d601f19601f82011682018060405250810190610e069190611f55565b508160066000828254610e199190611ebe565b92505081905550816000600260009054906101000a900473ffffffffffffffffffffffffffffffffffffffff1673ffffffffffffffffffffffffffffffffffffffff167f4fc5f55f8ec3831d5ba4ba8e2a3537e025a842802ab104bdf88cb3d28d6f0a6c42604051610e8b9190611caf565b60405180910390a4819050919050565b6000600a544211905090565b60008060009054906101000a900473ffffffffffffffffffffffffffffffffffffffff16905090565b600f5481565b6000600b54905090565b80600e8190555050565b6000600260009054906101000a900473ffffffffffffffffffffffffffffffffffffffff1673ffffffffffffffffffffffffffffffffffffffff163373ffffffffffffffffffffffffffffffffffffffff1614610f7c576040517f08c379a0000000000000000000000000000000000000000000000000000000008152600401610f7390611e6f565b60405180910390fd5b600454600c60009054906101000a900473ffffffffffffffffffffffffffffffffffffffff1673ffffffffffffffffffffffffffffffffffffffff166370a08231336040518263ffffffff1660e01b8152600401610fda9190611d0b565b602060405180830381865afa158015610ff7573d6000803e3d6000fd5b505050506040513d601f19601f8201168201806040525081019061101b9190612086565b101561105c576040517f08c379a000000000000000000000000000000000000000000000000000000000815260040161105390612191565b60405180910390fd5b600454600c60009054906101000a900473ffffffffffffffffffffffffffffffffffffffff1673ffffffffffffffffffffffffffffffffffffffff166370a08231306040518263ffffffff1660e01b81526004016110ba9190611d0b565b602060405180830381865afa1580156110d7573d6000803e3d6000fd5b505050506040513d601f19601f820116820180604052508101906110fb9190612086565b1061113b576040517f08c379a000000000000000000000000000000000000000000000000000000000815260040161113290612223565b60405180910390fd5b600c60009054906101000a900473ffffffffffffffffffffffffffffffffffffffff1673ffffffffffffffffffffffffffffffffffffffff166323b872dd33306004546040518463ffffffff1660e01b815260040161119c93929190611ef2565b6020604051808303816000875af11580156111bb573d6000803e3d6000fd5b505050506040513d601f19601f820116820180604052508101906111df9190611f55565b5060006004543373ffffffffffffffffffffffffffffffffffffffff167fce88b439105666372c4d9af0a307046ef3c65c23a8533efd717dd2f04dd87e934260405161122b9190611caf565b60405180910390a46001905090565b6000600160009054906101000a900473ffffffffffffffffffffffffffffffffffffffff1673ffffffffffffffffffffffffffffffffffffffff163373ffffffffffffffffffffffffffffffffffffffff16146112cc576040517f08c379a00000000000000000000000000000000000000000000000000000000081526004016112c390612051565b60405180910390fd5b600554600d60009054906101000a900473ffffffffffffffffffffffffffffffffffffffff1673ffffffffffffffffffffffffffffffffffffffff166370a08231336040518263ffffffff1660e01b815260040161132a9190611d0b565b602060405180830381865afa158015611347573d6000803e3d6000fd5b505050506040513d601f19601f8201168201806040525081019061136b9190612086565b10156113ac576040517f08c379a00000000000000000000000000000000000000000000000000000000081526004016113a39061228f565b60405180910390fd5b600554600d60009054906101000a900473ffffffffffffffffffffffffffffffffffffffff1673ffffffffffffffffffffffffffffffffffffffff166370a08231306040518263ffffffff1660e01b815260040161140a9190611d0b565b602060405180830381865afa158015611427573d6000803e3d6000fd5b505050506040513d601f19601f8201168201806040525081019061144b9190612086565b1061148b576040517f08c379a0000000000000000000000000000000000000000000000000000000008152600401611482906122fb565b60405180910390fd5b600d60009054906101000a900473ffffffffffffffffffffffffffffffffffffffff1673ffffffffffffffffffffffffffffffffffffffff166323b872dd33306005546040518463ffffffff1660e01b81526004016114ec93929190611ef2565b6020604051808303816000875af115801561150b573d6000803e3d6000fd5b505050506040513d601f19601f8201168201806040525081019061152f9190611f55565b5060055460003373ffffffffffffffffffffffffffffffffffffffff167fce88b439105666372c4d9af0a307046ef3c65c23a8533efd717dd2f04dd87e934260405161157b9190611caf565b60405180910390a46001905090565b6000600260009054906101000a900473ffffffffffffffffffffffffffffffffffffffff16905090565b6000600554905090565b600b5481565b6000600160009054906101000a900473ffffffffffffffffffffffffffffffffffffffff1673ffffffffffffffffffffffffffffffffffffffff163373ffffffffffffffffffffffffffffffffffffffff1614611656576040517f08c379a000000000000000000000000000000000000000000000000000000000815260040161164d90612051565b60405180910390fd5b600360009054906101000a900473ffffffffffffffffffffffffffffffffffffffff1673ffffffffffffffffffffffffffffffffffffffff163373ffffffffffffffffffffffffffffffffffffffff16146116e6576040517f08c379a00000000000000000000000000000000000000000000000000000000081526004016116dd9061238d565b60405180910390fd5b6116ee610e9b565b806116fd57506116fc610ba0565b5b61173c576040517f08c379a000000000000000000000000000000000000000000000000000000000815260040161173390612445565b60405180910390fd5b60075460085410611782576040517f08c379a0000000000000000000000000000000000000000000000000000000008152600401611779906124b1565b60405180910390fd5b600c60009054906101000a900473ffffffffffffffffffffffffffffffffffffffff1673ffffffffffffffffffffffffffffffffffffffff1663a9059cbb600160009054906101000a900473ffffffffffffffffffffffffffffffffffffffff166004546040518363ffffffff1660e01b8152600401611803929190611fb6565b6020604051808303816000875af1158015611822573d6000803e3d6000fd5b505050506040513d601f19601f820116820180604052508101906118469190611f55565b50600d60009054906101000a900473ffffffffffffffffffffffffffffffffffffffff1673ffffffffffffffffffffffffffffffffffffffff1663a9059cbb600160009054906101000a900473ffffffffffffffffffffffffffffffffffffffff166006546040518363ffffffff1660e01b81526004016118c8929190611fb6565b6020604051808303816000875af11580156118e7573d6000803e3d6000fd5b505050506040513d601f19601f8201168201806040525081019061190b9190611f55565b50600654600454600160009054906101000a900473ffffffffffffffffffffffffffffffffffffffff1673ffffffffffffffffffffffffffffffffffffffff167f4fc5f55f8ec3831d5ba4ba8e2a3537e025a842802ab104bdf88cb3d28d6f0a6c4260405161197a9190611caf565b60405180910390a460006006819055506001905090565b611999611ae5565b600073ffffffffffffffffffffffffffffffffffffffff168173ffffffffffffffffffffffffffffffffffffffff1603611a0b5760006040517f1e4fbdf7000000000000000000000000000000000000000000000000000000008152600401611a029190611d0b565b60405180910390fd5b611a1481611b6c565b50565b600080600742604051602001611a2d91906124f2565b6040516020818303038152906040528051906020012060001c611a50919061253c565b9050606460118281548110611a6857611a6761256d565b5b90600052602060002090602091828204019190069054906101000a900460ff1660ff16600e54611a98919061259c565b611aa291906125de565b600e81905550600e5491505090565b60118181548110611ac157600080fd5b9060005260206000209060209182820401919006915054906101000a900460ff1681565b611aed611c30565b73ffffffffffffffffffffffffffffffffffffffff16611b0b610ea7565b73ffffffffffffffffffffffffffffffffffffffff1614611b6a57611b2e611c30565b6040517f118cdaa7000000000000000000000000000000000000000000000000000000008152600401611b619190611d0b565b60405180910390fd5b565b60008060009054906101000a900473ffffffffffffffffffffffffffffffffffffffff169050816000806101000a81548173ffffffffffffffffffffffffffffffffffffffff021916908373ffffffffffffffffffffffffffffffffffffffff1602179055508173ffffffffffffffffffffffffffffffffffffffff168173ffffffffffffffffffffffffffffffffffffffff167f8be0079c531659141344cd1fd0a4f28419497f9722a3daafe3b4186f6b6457e060405160405180910390a35050565b600033905090565b600080fd5b6000819050919050565b611c5081611c3d565b8114611c5b57600080fd5b50565b600081359050611c6d81611c47565b92915050565b600060208284031215611c8957611c88611c38565b5b6000611c9784828501611c5e565b91505092915050565b611ca981611c3d565b82525050565b6000602082019050611cc46000830184611ca0565b92915050565b600073ffffffffffffffffffffffffffffffffffffffff82169050919050565b6000611cf582611cca565b9050919050565b611d0581611cea565b82525050565b6000602082019050611d206000830184611cfc565b92915050565b60008115159050919050565b611d3b81611d26565b82525050565b6000602082019050611d566000830184611d32565b92915050565b611d6581611cea565b8114611d7057600080fd5b50565b600081359050611d8281611d5c565b92915050565b600060208284031215611d9e57611d9d611c38565b5b6000611dac84828501611d73565b91505092915050565b600060ff82169050919050565b611dcb81611db5565b82525050565b6000602082019050611de66000830184611dc2565b92915050565b600082825260208201905092915050565b7f4f6e6c79207468652073656c6c65722063616e2063616c6c207468697320667560008201527f6e6374696f6e0000000000000000000000000000000000000000000000000000602082015250565b6000611e59602683611dec565b9150611e6482611dfd565b604082019050919050565b60006020820190508181036000830152611e8881611e4c565b9050919050565b7f4e487b7100000000000000000000000000000000000000000000000000000000600052601160045260246000fd5b6000611ec982611c3d565b9150611ed483611c3d565b9250828203905081811115611eec57611eeb611e8f565b5b92915050565b6000606082019050611f076000830186611cfc565b611f146020830185611cfc565b611f216040830184611ca0565b949350505050565b611f3281611d26565b8114611f3d57600080fd5b50565b600081519050611f4f81611f29565b92915050565b600060208284031215611f6b57611f6a611c38565b5b6000611f7984828501611f40565b91505092915050565b6000611f8d82611c3d565b9150611f9883611c3d565b9250828201905080821115611fb057611faf611e8f565b5b92915050565b6000604082019050611fcb6000830185611cfc565b611fd86020830184611ca0565b9392505050565b7f4f6e6c79207468652062757965722063616e2063616c6c20746869732066756e60008201527f6374696f6e000000000000000000000000000000000000000000000000000000602082015250565b600061203b602583611dec565b915061204682611fdf565b604082019050919050565b6000602082019050818103600083015261206a8161202e565b9050919050565b60008151905061208081611c47565b92915050565b60006020828403121561209c5761209b611c38565b5b60006120aa84828501612071565b91505092915050565b7f596f75206d757374206c6f636b20656e6f75676820636f6c6c61746572616c2060008201527f6265666f7265207769746864726177696e670000000000000000000000000000602082015250565b600061210f603283611dec565b915061211a826120b3565b604082019050919050565b6000602082019050818103600083015261213e81612102565b9050919050565b7f4e6f7420656e6f75676820636f6c6c61746572616c0000000000000000000000600082015250565b600061217b601583611dec565b915061218682612145565b602082019050919050565b600060208201905081810360008301526121aa8161216e565b9050919050565b7f436f6c6c61746572616c2077617320616c7265616479206c6f636b656420707260008201527f6576696f75736c79000000000000000000000000000000000000000000000000602082015250565b600061220d602883611dec565b9150612218826121b1565b604082019050919050565b6000602082019050818103600083015261223c81612200565b9050919050565b7f4e6f7420656e6f756768206c6f616e20636f696e730000000000000000000000600082015250565b6000612279601583611dec565b915061228482612243565b602082019050919050565b600060208201905081810360008301526122a88161226c565b9050919050565b7f4c6f616e20636f696e7320616c7265616479206c6f636b656400000000000000600082015250565b60006122e5601983611dec565b91506122f0826122af565b602082019050919050565b60006020820190508181036000830152612314816122d8565b9050919050565b7f4f6e6c792074686520636f6e7472616374206f776e65722063616e2063616c6c60008201527f20746869732066756e6374696f6e000000000000000000000000000000000000602082015250565b6000612377602e83611dec565b91506123828261231b565b604082019050919050565b600060208201905081810360008301526123a68161236a565b9050919050565b7f4c6f616e206973206e6f74206f766572647565206f7220646f6573206e6f742060008201527f6d6565742074686520726571756972656d656e74206f66206d617267696e206360208201527f616c6c2e00000000000000000000000000000000000000000000000000000000604082015250565b600061242f604483611dec565b915061243a826123ad565b606082019050919050565b6000602082019050818103600083015261245e81612422565b9050919050565b7f4c6f616e20616c7265616479207265706169642e000000000000000000000000600082015250565b600061249b601483611dec565b91506124a682612465565b602082019050919050565b600060208201905081810360008301526124ca8161248e565b9050919050565b6000819050919050565b6124ec6124e782611c3d565b6124d1565b82525050565b60006124fe82846124db565b60208201915081905092915050565b7f4e487b7100000000000000000000000000000000000000000000000000000000600052601260045260246000fd5b600061254782611c3d565b915061255283611c3d565b9250826125625761256161250d565b5b828206905092915050565b7f4e487b7100000000000000000000000000000000000000000000000000000000600052603260045260246000fd5b60006125a782611c3d565b91506125b283611c3d565b92508282026125c081611c3d565b915082820484148315176125d7576125d6611e8f565b5b5092915050565b60006125e982611c3d565b91506125f483611c3d565b9250826126045761260361250d565b5b82820490509291505056fea264697066735822122094a5c3461e4c27988c1565ec0e66916c4787da991487f5869b10e3722138833164736f6c63430008180033",
  "linkReferences": {},
  "deployedLinkReferences": {}
}